:100000000C945E000C9486000C9486000C94860080
:100010000C9486000C9486000C9486000C94860048
:100020000C9486000C9486000C9486000C94860038
:100030000C9486000C9486000C9486000C94860028
:100040000C9469030C9486000C942F030C94F40216
:100050000C9486000C9486000C9486000C94860008
:100060000C9486000C94860000000007000201003A
:100070000003040600000000000000000000000073
:10008000250028002B0000000000240027002A0083
:10009000040404040404040402020202020203032E
:1000A0000303030301020408102040800102040836
:1000B0001020010204081020B303E00511241FBE24
:1000C000CFEFD8E0DEBFCDBF11E0A0E0B1E0E6E6C3
:1000D000F0E102C005900D92A23EB107D9F722E0EF
:1000E000A2EEB1E001C01D92A03AB207E1F710E024
:1000F000CDE5D0E004C02197FE010E942008CC3558
:10010000D107C9F70E943E040C94E6050C94000048
:1001100090E0FC01EC55FF4F2491FC01E057FF4FAC
:100120008491882399F090E0880F991FFC01EA5789
:10013000FF4FA591B491FC01E458FF4F8591949134
:100140008FB7F894EC91E22BEC938FBF08950F9347
:100150001F93CF93DF93FC01A685B7858D01005CCB
:100160001F4FE8018881998101968F739927AD010E
:100170004E5B5F4FEA012881398128173907D1F397
:10018000E80128813981A20FB31F6C93A685B7853A
:10019000A05CBF4F11969C938E93A689B7892C9132
:1001A00081E090E0078C02C0880F991F0A94E2F763
:1001B000822B8C9381E081A30488F589E02D8081D6
:1001C0008064808381E090E0DF91CF911F910F9157
:1001D0000895FC0181A1882329F0A489B5898C9117
:1001E00086FFFBCF11A20895FC01A485B585FD0112
:1001F000E05CFF4F20813181329680819181281708
:10020000390779F080819181A80FB91F8C912081E5
:1002100031812F5F3F4F2F7333273183208390E04D
:1002200008958FEF9FEF08952FB7F8948091E7011D
:100230009091E801A091E901B091EA012FBF80936C
:100240007B0290937C02A0937D02B0937E0283E7B1
:1002500092E00E94F40097FF26C02FB7F894809197
:10026000E7019091E801A091E901B091EA012FBF67
:1002700040917B0250917C0260917D0270917E02E0
:10028000841B950BA60BB70B409177025091780217
:100290006091790270917A0284179507A607B707D3
:1002A000B0F28FEF9FEF0895DC011C96ED91FC9169
:1002B0001D97DF01A05CBF4F2D913C9111971296C5
:1002C0008D919C9111972817390739F08D919C9148
:1002D000E80FF91F808190E008958FEF9FEF089558
:1002E000FC0124853585F901E05CFF4F8081918117
:1002F000329620813181821B930B8F739927089549
:1003000083E792E00C9470010895CF92DF92EF9210
:10031000FF920F931F93CF93DF936C01EB017B014F
:10032000E40EF51E00E010E0CE15DF0561F06991E6
:10033000D601ED91FC910190F081E02DC601099567
:10034000080F191FF1CFC801DF91CF911F910F91B5
:10035000FF90EF90DF90CF90089590E0FC01E85976
:10036000FF4F2491FC01EC55FF4F3491FC01E05705
:10037000FF4FE491EE2309F43CC0222339F12330EE
:1003800091F038F42130A9F0223001F584B58F7D49
:1003900012C0263091F02730A1F02430B9F48091BA
:1003A00080008F7D03C0809180008F7780938000D4
:1003B0000DC084B58F7784BD09C08091B0008F7760
:1003C00003C08091B0008F7D8093B000F0E0EE0F0D
:1003D000FF1FE458FF4FA591B4919FB7F8946111A6
:1003E00004C08C913095382302C0EC913E2B3C9395
:1003F0009FBF08953FB7F8948091E3019091E40185
:10040000A091E501B091E60126B5A89B05C02F3F5C
:1004100019F00196A11DB11D3FBFBA2FA92F982F2A
:100420008827820F911DA11DB11DBC01CD0142E0A5
:10043000660F771F881F991F4A95D1F70895CF92AD
:10044000DF92EF92FF92CF93DF936B017C010E94CA
:10045000FA01EB01C114D104E104F10479F00E9426
:10046000FA016C1B7D0B683E7340A0F381E0C81A53
:10047000D108E108F108C851DC4FECCFDF91CF91F2
:10048000FF90EF90DF90CF90089561E083E00E94AD
:10049000AD0160E085E00C94AD0160E083E00E9476
:1004A000AD0160E085E00C94AD01CF92DF92EF9258
:1004B000FF920F931F93CF93DF938B01C0E0D0E0A7
:1004C0006C01990FEE08FF080C171D0794F061E00E
:1004D0008DE00E94AD01C701B6010E941F0260E0DD
:1004E0008DE00E94AD01C701B6010E941F02219656
:1004F000EBCFDF91CF911F910F91FF90EF90DF90A5
:10050000CF9008950F931F93CF93DF93009779F0C7
:10051000FC0101900020E9F73197AF01481B590B0E
:10052000BC0183E792E00E9485018C0102C000E0DB
:1005300010E06DE083E792E00E94A700EC016AE022
:1005400083E792E00E94A700C00FD11F8C0F9D1F70
:10055000DF91CF911F910F910895FC018091990235
:1005600090919A02892B21F421E0309749F413C02D
:100570008091950290919602309731F421E0FC0130
:100580008081882341F006C0BF010E94D90721E085
:10059000892B09F020E0822F08950F931F93CF93AA
:1005A000DF93EC0188819981009729F02A813B81B2
:1005B0002617370788F48B016F5F7F4F0E940A0769
:1005C000009761F0998388831B830A832C813D8186
:1005D000232B11F4FC01108281E001C080E0DF9147
:1005E000CF911F910F9108951F920F920FB60F9206
:1005F00011242F933F938F939F93EF93FF93209119
:100600002B0230912C0280912D0290912E022817FE
:10061000390731F48091C1008F7D8093C10014C0EF
:10062000E0912D02F0912E02E551FE4F2081809144
:100630002D0290912E0201968F73992790932E028E
:1006400080932D022093C600FF91EF919F918F918F
:100650003F912F910F900FBE0F901F9018951F92F2
:100660000F920FB60F9211242F934F935F938F9396
:100670009F93EF93FF938091C00082FD1CC0209157
:10068000C60080916F02909170024091710250916A
:10069000720201968F7399274817590771F0E091FC
:1006A0006F02F0917002E15DFD4F20839093700224
:1006B00080936F0202C08091C600FF91EF919F91DD
:1006C0008F915F914F912F910F900FBE0F901F90C0
:1006D00018951F920F920FB60F9211242F933F93EC
:1006E0008F939F93AF93BF938091E7019091E8011F
:1006F000A091E901B091EA013091E20123E0230FDA
:100700002D3720F40196A11DB11D05C026E8230F49
:100710000296A11DB11D2093E2018093E701909301
:10072000E801A093E901B093EA018091E30190917F
:10073000E401A091E501B091E6010196A11DB11D72
:100740008093E3019093E401A093E501B093E60167
:10075000BF91AF919F918F913F912F910F900FBEBD
:100760000F901F901895109276021092750288EEE5
:1007700093E0A0E0B0E08093770290937802A0939A
:100780007902B0937A028AE091E0909374028093A8
:1007900073028FE292E09093800280937F028BEE4F
:1007A00091E0909382028093810285EC90E0909397
:1007B00084028093830284EC90E09093860280937D
:1007C000850280EC90E0909388028093870281EC10
:1007D00090E090938A028093890282EC90E090935B
:1007E0008C0280938B0286EC90E090938E02809333
:1007F0008D0284E080938F0283E08093900287E0F3
:100800008093910285E08093920281E0809393022D
:1008100010929602109295021092980210929702EE
:1008200010929A021092990210929B0260E070E07E
:1008300085E992E00E94CD022091950230919602C6
:10084000811113C02115310519F0C9010E948106DB
:10085000109296021092950210929A0210929902AA
:100860001092980210929702089510929A02109294
:10087000990268E371E0C9010C94E207CF93DF931A
:10088000CDB7DEB729970FB6F894DEBF0FBECDBF48
:10089000789484B5826084BD84B5816084BD85B55B
:1008A000826085BD85B5816085BD80916E00816067
:1008B00080936E001092810080918100826080930D
:1008C000810080918100816080938100809180000F
:1008D0008160809380008091B10084608093B1003A
:1008E0008091B00081608093B00080917A00846034
:1008F00080937A0080917A00826080937A00809160
:100900007A00816080937A0080917A008068809379
:100910007A001092C1008DE00E94880083E00E945E
:10092000880085E00E948800E0918702F0918802AB
:1009300081E090E09C010090930202C0220F331FDF
:100940000A94E2F72083E0918302F09184021082FE
:10095000E0918502F09186022FEC208310929402A0
:10096000E0918902F0918A0240819C0100908F02FF
:1009700002C0220F331F0A94E2F7242B2083E09158
:100980008902F0918A0240819C010090900202C08D
:10099000220F331F0A94E2F7242B2083E09189026F
:1009A000F0918A0240819C010090910202C0220FC6
:1009B000331F0A94E2F7242B2083E0918902F091FF
:1009C0008A0220810090920202C0880F991F0A9427
:1009D000E2F780958223808386E191E00E94820283
:1009E00087E391E0E82E880FFF080E94450260ED42
:1009F00077E080E090E00E941F020E944D0283E7B2
:100A000092E00E947001892B09F4D7C01A821982E2
:100A10001C821B821E821D821F8260E070E0CE015C
:100A200001960E94CD0229813A8181110DC02115C4
:100A3000310519F0C9010E9481061A8219821E82AD
:100A40001D821C821B8207C01E821D8268E371E02A
:100A5000C9010E94E2070E9414010D811E8197FDC9
:100A60001CC08E159F05C9F0888719860F5F1F4F20
:100A7000B801CE0101960E94CD02882361F329813D
:100A80003A818D819E81BE01685F7F4F820F931FE7
:100A90000E94E2071E830D83DECF80919502909124
:100AA00096020097A1F020919702309198022017AA
:100AB000310758F069817A810E94E2078D819E8119
:100AC00090939A028093990216C00E9481068981B0
:100AD0009A8190939602809395028B819C8190934A
:100AE0009802809397028D819E8190939A028093C1
:100AF00099021A82198289819A810E94810689E36A
:100B000091E00E94AD02882319F08EE391E04FC07E
:100B10008EE491E00E94AD02882339F089E591E0EE
:100B20000E9482020E94450244C088E691E00E9431
:100B3000AD02882369F085E791E00E94820260E0BF
:100B400083E00E94AD0161E085E00E94AD0131C00B
:100B50008FE891E00E94AD02882339F089E991E0A5
:100B60000E9482020E944D0224C088EA91E00E9405
:100B7000AD02882349F082EB91E00E9482026AE094
:100B800070E088EC90E00EC087EC91E00E94AD022E
:100B9000882359F082EB91E00E94820262E070E0CB
:100BA00088EE93E00E94550204C081ED91E00E941E
:100BB000820286E191E00E9482020E94800115CFAC
:100BC00080919502909196020C948106F8940C9471
:100BD00026080F931F93CF93DF938230910510F473
:100BE00082E090E0E0919E02F0919F0220E030E0F0
:100BF000A0E0B0E0309719F140815181028113816A
:100C000048175907C8F08417950769F4109731F011
:100C100012960C93129713961C9327C000939E0272
:100C200010939F0222C02115310519F04217530776
:100C300018F49A01BD01EF01DF01F801DBCF2115A6
:100C40003105F9F0281B390B2430310580F48A81F5
:100C50009B816115710521F0FB019383828304C0A0
:100C600090939F0280939E02FE01329644C0FE0143
:100C7000E20FF31F81939193225031093983288326
:100C80003AC020919C0230919D02232B41F4209187
:100C900002013091030130939D0220939C02209128
:100CA0000001309101012115310541F42DB73EB706
:100CB0004091040150910501241B350BE0919C02E9
:100CC000F0919D02E217F307A0F42E1B3F0B2817AB
:100CD000390778F0AC014E5F5F4F2417350748F0B5
:100CE0004E0F5F1F50939D0240939C0281939193FE
:100CF00002C0E0E0F0E0CF01DF91CF911F910F91B2
:100D00000895CF93DF93009709F481C0FC013297D7
:100D100013821282A0919E02B0919F02109781F4DB
:100D200020813181820F931F20919C0230919D027E
:100D30002817390751F5F0939D02E0939C0267C094
:100D4000ED0120E030E0CE17DF0740F44A815B81FF
:100D50009E0141155105F1F0EA01F5CFD383C2831D
:100D600040815181840F951FC817D90759F4888194
:100D70009981840F951F0296918380838A819B813C
:100D8000938382832115310529F4F0939F02E09328
:100D90009E023DC0E901FB83EA8349915991C40F4A
:100DA000D51FEC17FD0761F480819181840F951F99
:100DB0000296E90199838883828193819B838A8348
:100DC000E0E0F0E012968D919C911397009719F056
:100DD000FD01DC01F7CF8D919C9111979D012E5F54
:100DE0003F4F820F931F20919C0230919D02281744
:100DF000390769F4309729F410929F0210929E02ED
:100E000002C013821282B0939D02A0939C02DF91D4
:100E1000CF910895A0E0B0E0E0E1F7E00C94ED0799
:100E2000EC01009721F4CB010E94E905B4C0FC015C
:100E3000E60FF71F9C0122503109E217F30708F46F
:100E4000A8C0D9010D911C91119706171707B0F092
:100E50000530110508F49BC0C80104978617970751
:100E600008F495C002501109061B170B019311934A
:100E70006D937C93CF010E94810689C05B01A01A0B
:100E8000B10A4C01800E911EA0919E02B0919F026A
:100E9000612C712CE12CF12C109709F446C08D9136
:100EA0009C911197A815B905B1F56C0142E0C40EEB
:100EB000D11CCA14DB0478F14C018A189B08640128
:100EC00042E0C40ED11C1296BC9012971396AC91BE
:100ED000B5E0CB16D10440F0B282A3839182808228
:100EE000D9016D937C9309C00E5F1F4F800F911F36
:100EF000F90191838083EB2DFA2FE114F10431F095
:100F0000D7011396FC93EE93129741C0F0939F0282
:100F1000E0939E023CC06816790608F43C017D010E
:100F200012960D90BC91A02DB7CF80919C0290910C
:100F30009D0288169906E1F466167706C8F480913A
:100F4000000190910101009741F48DB79EB7409147
:100F5000040150910501841B950BE817F907C8F4AB
:100F6000F0939D02E0939C02F901718360830FC0AE
:100F7000CB010E94E9057C01009759F0A801BE0150
:100F80000E94D007CE010E948106C70104C0CE0195
:100F900002C080E090E0CDB7DEB7EEE00C94090827
:100FA000FB01DC0102C001900D9241505040D8F786
:100FB0000895FB01DC018D91019080190110D9F396
:100FC000990B0895FB01DC0101900D920020E1F7DF
:100FD00008952F923F924F925F926F927F928F92DD
:100FE0009F92AF92BF92CF92DF92EF92FF920F93B8
:100FF0001F93CF93DF93CDB7DEB7CA1BDB0B0FB6C2
:10100000F894DEBF0FBECDBF09942A88398848887E
:101010005F846E847D848C849B84AA84B984C88414
:10102000DF80EE80FD800C811B81AA81B981CE0F0B
:10103000D11D0FB6F894DEBF0FBECDBFED010895F0
:10104000EE0FFF1F0590F491E02D099410E0CDE51F
:10105000D0E004C0FE010E9420082196CE35D107C1
:06106000C9F7F894FFCF70
:101066000000A002200000000000A700850170011A
:10107600F4005401E900506C656173652074797061
:1010860065206120636F6D6D616E6420746F2065ED
:10109600786563757465000A00696E697400496E47
:1010A600697420696E2070726F63657373006D6F6B
:1010B600746F725374617274005374617274696EE2
:1010C60067206D6F746F72006D6F746F7252657604
:1010D60065727365005374617274696E67206D6F13
:1010E600746F7220696E2072657665727365006D25
:1010F6006F746F7253746F700053746F7070696E93
:1011060067206D6F746F720066617374426C696EEE
:101116006B0066617374426C696E6B20696E207039
:10112600726F6365737300736C6F77426C696E6B75
:1011360000496E76616C696420636F6D6D616E64E3
:021146000000A7
:00000001FF
