:100000000C9436000C945E000C945E000C945E0020
:100010000C945E000C945E000C945E000C945E00E8
:100020000C945E000C945E000C945E000C945E00D8
:100030000C945E000C945E000C945E000C945E00C8
:100040000C9452020C945E000C9418020C94DD0186
:100050000C945E000C945E000C945E000C945E00A8
:100060000C945E000C945E009C02AA0411241FBE36
:10007000CFEFD8E0DEBFCDBF11E0A0E0B1E0EAEF06
:10008000FDE002C005900D92A23AB107D9F722E037
:10009000A2EAB1E001C01D92A036B207E1F710E07C
:1000A000C5E3D0E004C02197FE010E94EA06C433F4
:1000B000D107C9F70E9427030C94B0040C940000E8
:1000C0000F931F93CF93DF93FC01A685B7858D0116
:1000D000005C1F4FE8018881998101968F739927F1
:1000E000AD014E5B5F4FEA0128813981281739073E
:1000F000D1F3E80128813981A20FB31F6C93A68543
:10010000B785A05CBF4F11969C938E93A689B78943
:100110002C9181E090E0078C02C0880F991F0A940F
:10012000E2F7822B8C9381E081A30488F589E02D8E
:1001300080818064808381E090E0DF91CF911F9186
:100140000F910895FC0181A1882329F0A489B58924
:100150008C9186FFFBCF11A20895FC01A485B58583
:10016000FD01E05CFF4F20813181329680819181D9
:100170002817390779F080819181A80FB91F8C91D8
:10018000208131812F5F3F4F2F73332731832083AD
:1001900090E008958FEF9FEF08952FB7F894809126
:1001A000A7019091A801A091A901B091AA012FBF28
:1001B00080933B0290933C02A0933D02B0933E0299
:1001C00083E392E00E94AD0097FF26C02FB7F8941A
:1001D0008091A7019091A801A091A901B091AA01D5
:1001E0002FBF40913B0250913C0260913D027091C3
:1001F0003E02841B950BA60BB70B40913702509122
:1002000038026091390270913A0284179507A60767
:10021000B707B0F28FEF9FEF0895DC011C96ED91C8
:10022000FC911D97DF01A05CBF4F2D913C91119770
:1002300012968D919C9111972817390739F08D915D
:100240009C91E80FF91F808190E008958FEF9FEF58
:100250000895FC0124853585F901E05CFF4F80811C
:100260009181329620813181821B930B8F73992764
:10027000089583E392E00C9429010895CF92DF92D0
:10028000EF92FF920F931F93CF93DF936C01EB01DB
:100290007B01E40EF51E00E010E0CE15DF0561F0F5
:1002A0006991D601ED91FC910190F081E02DC6019C
:1002B0000995080F191FF1CFC801DF91CF911F9148
:1002C0000F91FF90EF90DF90CF9008953FB7F89493
:1002D0008091A3019091A401A091A501B091A601E4
:1002E00026B5A89B05C02F3F19F00196A11DB11D91
:1002F0003FBFBA2FA92F982F8827820F911DA11DCC
:10030000B11DBC01CD0142E0660F771F881F991F08
:100310004A95D1F708950F931F93CF93DF930097DA
:1003200079F0FC0101900020E9F73197AF01481BFB
:10033000590BBC0183E392E00E943E018C0102C094
:1003400000E010E06DE083E392E00E946000EC01C9
:100350006AE083E392E00E946000C00FD11F8C0F1F
:100360009D1FDF91CF911F910F9108950F931F93C0
:10037000CF93DF93EC0188819981009729F02A813E
:100380003B812617370788F48B016F5F7F4F0E94F0
:10039000D405009761F0998388831B830A832C819D
:1003A0003D81232B11F4FC01108281E001C080E02B
:1003B000DF91CF911F910F9108951F920F920FB669
:1003C0000F9211242F933F938F939F93EF93FF935B
:1003D0002091EB013091EC018091ED019091EE01C3
:1003E0002817390731F48091C1008F7D8093C100B7
:1003F00014C0E091ED01F091EE01E555FE4F208132
:100400008091ED019091EE0101968F739927909361
:10041000EE018093ED012093C600FF91EF919F9133
:100420008F913F912F910F900FBE0F901F901895B5
:100430001F920F920FB60F9211242F934F935F9339
:100440008F939F93EF93FF938091C00082FD1CC018
:100450002091C60080912F0290913002409131028C
:100460005091320201968F7399274817590771F0FE
:10047000E0912F02F0913002E151FE4F20839093E2
:10048000300280932F0202C08091C600FF91EF914D
:100490009F918F915F914F912F910F900FBE0F9071
:1004A0001F9018951F920F920FB60F9211242F9341
:1004B0003F938F939F93AF93BF938091A7019091A8
:1004C000A801A091A901B091AA013091A20123E055
:1004D000230F2D3720F40196A11DB11D05C026E87C
:1004E000230F0296A11DB11D2093A2018093A701A5
:1004F0009093A801A093A901B093AA018091A301B0
:100500009091A401A091A501B091A6010196A11D11
:10051000B11D8093A3019093A401A093A501B09372
:10052000A601BF91AF919F918F913F912F910F9015
:100530000FBE0F901F901895109236021092350240
:1005400088EE93E0A0E0B0E0809337029093380209
:10055000A0933902B0933A028AE091E0909334027A
:10056000809333028FEE91E09093400280933F029C
:100570008BEA91E0909342028093410285EC90E0F7
:10058000909344028093430284EC90E0909346025F
:100590008093450280EC90E090934802809347025C
:1005A00081EC90E090934A028093490282EC90E0C3
:1005B00090934C0280934B0286EC90E090934E0215
:1005C00080934D0284E080934F0283E08093500239
:1005D00087E08093510285E08093520281E080930E
:1005E0005302109256021092550210925802109225
:1005F000570210925A021092590210925B0260E068
:1006000070E085E592E00E94B6012091550230919C
:100610005602811113C02115310519F0C9010E943C
:100620004B05109256021092550210925A021092E7
:1006300059021092580210925702089510925A02CD
:100640001092590268E371E0C9010C94AC06CF9393
:10065000DF93CDB7DEB729970FB6F894DEBF0FBE94
:10066000CDBF789484B5826084BD84B5816084BD3B
:1006700085B5826085BD85B5816085BD80916E0040
:10068000816080936E001092810080918100826071
:1006900080938100809181008160809381008091AE
:1006A00080008160809380008091B100846080939D
:1006B000B1008091B00081608093B00080917A0099
:1006C000846080937A0080917A00826080937A00BF
:1006D00080917A00816080937A0080917A008068AE
:1006E00080937A001092C100E0914702F091480295
:1006F00081E090E09C010090530202C0220F331F62
:100700000A94E2F72083E0914302F09144021082C0
:10071000E0914502F09146022FEC208310925402A2
:10072000E0914902F0914A0240819C0100904F0201
:1007300002C0220F331F0A94E2F7242B2083E0919A
:100740004902F0914A0240819C010090500202C08F
:10075000220F331F0A94E2F7242B2083E0914902F1
:10076000F0914A0240819C010090510202C0220F88
:10077000331F0A94E2F7242B2083E0914902F09181
:100780004A0220810090520202C0880F991F0A94E9
:10079000E2F78095822380830E9466018B0180EDC1
:1007A000C82E87E0D82EE12CF12C0E946601601B38
:1007B000710B683E7340C8F381E0C81AD108E108A4
:1007C000F10808511C4FC114D104E104F10469F788
:1007D00086E191E00E948B0187E391E0E82E880F8B
:1007E000FF0883E392E00E942901892B09F4AFC03E
:1007F0001A8219821C821B821E821D821F8260E067
:1008000070E0CE0101960E94B60129813A818111E2
:100810000DC02115310519F0C9010E944B051A823E
:1008200019821E821D821C821B8207C01E821D82AD
:1008300068E371E0C9010E94AC060E94CD000D8101
:100840001E8197FD1CC08E159F05C9F088871986EB
:100850000F5F1F4FB801CE0101960E94B601882399
:1008600061F329813A818D819E81BE01685F7F4F4E
:10087000820F931F0E94AC061E830D83DECF8091F2
:100880005502909156020097A1F0209157023091A5
:1008900058022017310758F069817A810E94AC060E
:1008A0008D819E8190935A028093590216C00E94B6
:1008B0004B0589819A8190935602809355028B81D2
:1008C0009C8190935802809357028D819E819093D2
:1008D0005A02809359021A82198289819A810E9450
:1008E0004B058091590290915A02892B61F1009138
:1008F00055021091560269E371E0C8010E94A306F7
:10090000892B19F48EE391E020C06EE471E0C801F8
:100910000E94A306892B19F483E591E016C063E6D3
:1009200071E0C8010E94A306892B19F488E691E0C2
:100930000CC068E771E0C8010E94A306892B19F476
:100940008FE791E002C081E991E00E948B010E9453
:10095000390147CF80915502909156020C944B0576
:10096000F8940C94F0060F931F93CF93DF9382308B
:10097000910510F482E090E0E0915E02F0915F0258
:1009800020E030E0A0E0B0E0309719F140815181E3
:100990000281138148175907C8F08417950769F435
:1009A000109731F012960C93129713961C9327C050
:1009B00000935E0210935F0222C02115310519F0E9
:1009C0004217530718F49A01BD01EF01DF01F80146
:1009D000DBCF21153105F9F0281B390B2430310507
:1009E00080F48A819B816115710521F0FB0193835D
:1009F000828304C090935F0280935E02FE01329670
:100A000044C0FE01E20FF31F8193919322503109FC
:100A1000398328833AC020915C0230915D02232BF8
:100A200041F4209102013091030130935D02209343
:100A30005C0220910001309101012115310541F442
:100A40002DB73EB74091040150910501241B350B91
:100A5000E0915C02F0915D02E217F307A0F42E1B17
:100A60003F0B2817390778F0AC014E5F5F4F241712
:100A7000350748F04E0F5F1F50935D0240935C02B4
:100A80008193919302C0E0E0F0E0CF01DF91CF913C
:100A90001F910F910895CF93DF93009709F481C0C0
:100AA000FC01329713821282A0915E02B0915F0224
:100AB000109781F420813181820F931F20915C0275
:100AC00030915D022817390751F5F0935D02E093EC
:100AD0005C0267C0ED0120E030E0CE17DF0740F494
:100AE0004A815B819E0141155105F1F0EA01F5CF84
:100AF000D383C28340815181840F951FC817D907C2
:100B000059F488819981840F951F0296918380837F
:100B10008A819B81938382832115310529F4F09387
:100B20005F02E0935E023DC0E901FB83EA834991E5
:100B30005991C40FD51FEC17FD0761F48081918195
:100B4000840F951F0296E90199838883828193819E
:100B50009B838A83E0E0F0E012968D919C9113973D
:100B6000009719F0FD01DC01F7CF8D919C91119751
:100B70009D012E5F3F4F820F931F20915C023091A9
:100B80005D022817390769F4309729F410925F0243
:100B900010925E0202C013821282B0935D02A09393
:100BA0005C02DF91CF910895A0E0B0E0EAEDF5E0BE
:100BB0000C94B706EC01009721F4CB010E94B3041A
:100BC000B4C0FC01E60FF71F9C0122503109E21767
:100BD000F30708F4A8C0D9010D911C9111970617CD
:100BE0001707B0F00530110508F49BC0C801049741
:100BF0008617970708F495C002501109061B170BBA
:100C0000019311936D937C93CF010E944B0589C092
:100C10005B01A01AB10A4C01800E911EA0915E02E8
:100C2000B0915F02612C712CE12CF12C109709F42A
:100C300046C08D919C911197A815B905B1F56C012D
:100C400042E0C40ED11CCA14DB0478F14C018A18AE
:100C50009B08640142E0C40ED11C1296BC9012970E
:100C60001396AC91B5E0CB16D10440F0B282A383C9
:100C700091828082D9016D937C9309C00E5F1F4FD2
:100C8000800F911FF90191838083EB2DFA2FE114DE
:100C9000F10431F0D7011396FC93EE93129741C003
:100CA000F0935F02E0935E023CC06816790608F498
:100CB0003C017D0112960D90BC91A02DB7CF809183
:100CC0005C0290915D0288169906E1F4661677063B
:100CD000C8F48091000190910101009741F48DB713
:100CE0009EB74091040150910501841B950BE817B4
:100CF000F907C8F4F0935D02E0935C02F901718397
:100D000060830FC0CB010E94B3047C01009759F0AF
:100D1000A801BE010E949A06CE010E944B05C701A0
:100D200004C0CE0102C080E090E0CDB7DEB7EEE0B7
:100D30000C94D306FB01DC0102C001900D924150DE
:100D40005040D8F70895FB01DC018D910190801986
:100D50000110D9F3990B0895FB01DC0101900D926C
:100D60000020E1F708952F923F924F925F926F9289
:100D70007F928F929F92AF92BF92CF92DF92EF922B
:100D8000FF920F931F93CF93DF93CDB7DEB7CA1BAC
:100D9000DB0B0FB6F894DEBF0FBECDBF09942A88D7
:100DA000398848885F846E847D848C849B84AA847F
:100DB000B984C884DF80EE80FD800C811B81AA810C
:100DC000B981CE0FD11D0FB6F894DEBF0FBECDBFD7
:100DD000ED010895EE0FFF1F0590F491E02D0994A9
:100DE00010E0C5E3D0E004C0FE010E94EA062196AF
:0A0DF000C633D107C9F7F894FFCF0E
:100DFA000000600220000000000060003E0129019E
:100E0A00AD000D01A200506C6561736520747970A4
:100E1A0065206120636F6D6D616E6420746F20655B
:100E2A00786563757465000A00696E697400496EB5
:100E3A00697420696E2070726F63657373007365DD
:100E4A006E640053656E6420696E2070726F63650C
:100E5A0073730064617461004461746120696E2077
:100E6A0070726F63657373007265626F6F7400529C
:100E7A0065626F6F7420696E2070726F6365737339
:100E8A0000496E76616C696420636F6D6D616E6492
:020E9A00000056
:00000001FF
