:100000000C945E000C9486000C9486000C94860080
:100010000C9486000C9486000C9486000C94860048
:100020000C9486000C9486000C9486000C94860038
:100030000C9486000C9486000C9486000C94860028
:100040000C9459030C9486000C941F030C94E40246
:100050000C9486000C9486000C9486000C94860008
:100060000C9486000C94860000000007000201003A
:100070000003040600000000000000000000000073
:10008000250028002B0000000000240027002A0083
:10009000040404040404040402020202020203032E
:1000A0000303030301020408102040800102040836
:1000B0001020010204081020A303CF0511241FBE45
:1000C000CFEFD8E0DEBFCDBF11E0A0E0B1E0E4E4C7
:1000D000F0E102C005900D92A63DB107D9F722E0EC
:1000E000A6EDB1E001C01D92A439B207E1F710E01E
:1000F000CDE5D0E004C02197FE010E940F08CC3569
:10010000D107C9F70E942E040C94D5050C94000069
:1001100090E0FC01EC55FF4F2491FC01E057FF4FAC
:100120008491882399F090E0880F991FFC01EA5789
:10013000FF4FA591B491FC01E458FF4F8591949134
:100140008FB7F894EC91E22BEC938FBF08950F9347
:100150001F93CF93DF93FC01A685B7858D01005CCB
:100160001F4FE8018881998101968F739927AD010E
:100170004E5B5F4FEA012881398128173907D1F397
:10018000E80128813981A20FB31F6C93A685B7853A
:10019000A05CBF4F11969C938E93A689B7892C9132
:1001A00081E090E0078C02C0880F991F0A94E2F763
:1001B000822B8C9381E081A30488F589E02D8081D6
:1001C0008064808381E090E0DF91CF911F910F9157
:1001D0000895FC0181A1882329F0A489B5898C9117
:1001E00086FFFBCF11A20895FC01A485B585FD0112
:1001F000E05CFF4F20813181329680819181281708
:10020000390779F080819181A80FB91F8C912081E5
:1002100031812F5F3F4F2F7333273183208390E04D
:1002200008958FEF9FEF08952FB7F8948091DB0129
:100230009091DC01A091DD01B091DE012FBF809390
:100240006F0290937002A0937102B093720287E6DE
:1002500092E00E94F40097FF26C02FB7F894809197
:10026000DB019091DC01A091DD01B091DE012FBF97
:1002700040916F0250917002609171027091720210
:10028000841B950BA60BB70B40916B0250916C022F
:1002900060916D0270916E0284179507A607B707EB
:1002A000B0F28FEF9FEF0895DC011C96ED91FC9169
:1002B0001D97DF01A05CBF4F2D913C9111971296C5
:1002C0008D919C9111972817390739F08D919C9148
:1002D000E80FF91F808190E008958FEF9FEF089558
:1002E000FC0124853585F901E05CFF4F8081918117
:1002F000329620813181821B930B8F739927089549
:1003000087E692E00C9470010895CF92DF92EF920D
:10031000FF920F931F93CF93DF936C01EB017B014F
:10032000E40EF51E00E010E0CE15DF0561F06991E6
:10033000D601ED91FC910190F081E02DC601099567
:10034000080F191FF1CFC801DF91CF911F910F91B5
:10035000FF90EF90DF90CF90089590E0FC01E85976
:10036000FF4F2491FC01EC55FF4F3491FC01E05705
:10037000FF4FE491EE2309F43CC0222339F12330EE
:1003800091F038F42130A9F0223001F584B58F7D49
:1003900012C0263091F02730A1F02430B9F48091BA
:1003A00080008F7D03C0809180008F7780938000D4
:1003B0000DC084B58F7784BD09C08091B0008F7760
:1003C00003C08091B0008F7D8093B000F0E0EE0F0D
:1003D000FF1FE458FF4FA591B4919FB7F8946111A6
:1003E00004C08C913095382302C0EC913E2B3C9395
:1003F0009FBF08953FB7F8948091D7019091D8019D
:10040000A091D901B091DA0126B5A89B05C02F3F74
:1004100019F00196A11DB11D3FBFBA2FA92F982F2A
:100420008827820F911DA11DB11DBC01CD0142E0A5
:10043000660F771F881F991F4A95D1F70895CF92AD
:10044000DF92EF92FF92CF93DF936B017C010E94CA
:10045000FA01EB01C114D104E104F10479F00E9426
:10046000FA016C1B7D0B683E7340A0F381E0C81A53
:10047000D108E108F108C851DC4FECCFDF91CF91F2
:10048000FF90EF90DF90CF900895CF92DF92EF92A0
:10049000FF920F931F93CF93DF938B01C0E0D0E0C7
:1004A0006C01990FEE08FF080C171D0794F061E02E
:1004B0008DE00E94AD01C701B6010E941F0260E0FD
:1004C0008DE00E94AD01C701B6010E941F02219676
:1004D000EBCFDF91CF911F910F91FF90EF90DF90C5
:1004E000CF9008950F931F93CF93DF93009779F0E8
:1004F000FC0101900020E9F73197AF01481B590B2F
:10050000BC0187E692E00E9485018C0102C000E0F8
:1005100010E06DE087E692E00E94A700EC016AE03F
:1005200087E692E00E94A700C00FD11F8C0F9D1F8D
:10053000DF91CF911F910F910895FC0180918D0261
:1005400090918E02892B21F421E0309749F413C059
:100550008091890290918A02309731F421E0FC0168
:100560008081882341F006C0BF010E94C80721E0B6
:10057000892B09F020E0822F08950F931F93CF93CA
:10058000DF93EC0188819981009729F02A813B81D2
:100590002617370788F48B016F5F7F4F0E94F9069B
:1005A000009761F0998388831B830A832C813D81A6
:1005B000232B11F4FC01108281E001C080E0DF9167
:1005C000CF911F910F9108951F920F920FB60F9226
:1005D00011242F933F938F939F93EF93FF93209139
:1005E0001F0230912002809121029091220228174F
:1005F000390731F48091C1008F7D8093C10014C010
:10060000E0912102F0912202E152FE4F208180917F
:1006100021029091220201968F73992790932202D2
:10062000809321022093C600FF91EF919F918F91BB
:100630003F912F910F900FBE0F901F9018951F9212
:100640000F920FB60F9211242F934F935F938F93B6
:100650009F93EF93FF938091C00082FD1CC0209177
:10066000C6008091630290916402409165025091AE
:10067000660201968F7399274817590771F0E09128
:100680006302F0916402ED5DFD4F2083909364025C
:100690008093630202C08091C600FF91EF919F9109
:1006A0008F915F914F912F910F900FBE0F901F90E0
:1006B00018951F920F920FB60F9211242F933F930C
:1006C0008F939F93AF93BF938091DB019091DC0157
:1006D000A091DD01B091DE013091D60123E0230F1E
:1006E0002D3720F40196A11DB11D05C026E8230F6A
:1006F0000296A11DB11D2093D6018093DB0190933A
:10070000DC01A093DD01B093DE018091D7019091CF
:10071000D801A091D901B091DA010196A11DB11DB6
:100720008093D7019093D801A093D901B093DA01B7
:10073000BF91AF919F918F913F912F910F900FBEDD
:100740000F901F90189510926A021092690288EE1D
:1007500093E0A0E0B0E080936B0290936C02A093D2
:100760006D02B0936E028AE091E0909368028093EC
:10077000670283E292E090937402809373028FED9C
:1007800091E0909376028093750285EC90E09093CF
:1007900078028093770284EC90E090937A028093C1
:1007A000790280EC90E090937C0280937B0281EC54
:1007B00090E090937E0280937D0282EC90E0909393
:1007C000800280937F0286EC90E090938202809377
:1007D000810284E08093830283E08093840287E037
:1007E0008093850285E08093860281E08093870272
:1007F00010928A021092890210928C0210928B023F
:1008000010928E0210928D0210928F0260E070E0C2
:1008100089E892E00E94BD022091890230918A020B
:10082000811113C02115310519F0C9010E9470060C
:1008300010928A021092890210928E0210928D02FA
:1008400010928C0210928B02089510928E021092D8
:100850008D0268E371E0C9010C94D107CF93DF9357
:10086000CDB7DEB729970FB6F894DEBF0FBECDBF68
:10087000789484B5826084BD84B5816084BD85B57B
:10088000826085BD85B5816085BD80916E00816087
:1008900080936E001092810080918100826080932D
:1008A000810080918100816080938100809180002F
:1008B0008160809380008091B10084608093B1005A
:1008C0008091B00081608093B00080917A00846054
:1008D00080937A0080917A00826080937A00809180
:1008E0007A00816080937A0080917A00806880939A
:1008F0007A001092C1008DE00E94880085E00E947D
:10090000880083E00E94880084E00E948800E091D3
:100910007B02F0917C0281E090E09C0100908702D4
:1009200002C0220F331F0A94E2F72083E09177027E
:10093000F09178021082E0917902F0917A022FEC26
:10094000208310928802E0917D02F0917E02408126
:100950009C010090830202C0220F331F0A94E2F729
:10096000242B2083E0917D02F0917E0240819C0146
:100970000090840202C0220F331F0A94E2F7242B56
:100980002083E0917D02F0917E0240819C010090E5
:10099000850202C0220F331F0A94E2F7242B208322
:1009A000E0917D02F0917E0220810090860202C0DB
:1009B000880F991F0A94E2F780958223808386E14D
:1009C00091E00E94720287E391E0E82E880FFF0811
:1009D00061E085E00E94AD0187E692E00E9470012F
:1009E000892B09F4D9C01A8219821C821B821E82AB
:1009F0001D821F8260E070E0CE0101960E94BD0260
:100A000029813A8181110DC02115310519F0C901E3
:100A10000E9470061A8219821E821D821C821B820D
:100A200007C01E821D8268E371E0C9010E94D107E0
:100A30000E9414010D811E8197FD1CC08E159F051B
:100A4000C9F0888719860F5F1F4FB801CE01019644
:100A50000E94BD02882361F329813A818D819E81A4
:100A6000BE01685F7F4F820F931F0E94D1071E83D4
:100A70000D83DECF8091890290918A020097A1F0C8
:100A800020918B0230918C022017310758F0698138
:100A90007A810E94D1078D819E8190938E028093EE
:100AA0008D0216C00E94700689819A8190938A02F5
:100AB000809389028B819C8190938C0280938B021E
:100AC0008D819E8190938E0280938D021A8219826D
:100AD00089819A810E94700689E391E00E949D02BB
:100AE000882319F08EE391E051C087E991E00E94DC
:100AF0009D02882331F08EE491E00E94720261E051
:100B00001BC08DE591E00E949D02882351F08AE68A
:100B100091E00E94720260E083E00E94AD0161E01A
:100B20000FC084E891E00E949D02882369F08EE85E
:100B300091E00E94720260E083E00E94AD0160E0FB
:100B400084E00E94AD0124C08DE991E00E949D02E5
:100B5000882349F087EA91E00E9472026AE070E01F
:100B600088EC90E00EC08CEB91E00E949D028823FF
:100B700059F087EA91E00E94720262E070E088EE2C
:100B800093E00E94450204C086EC91E00E9472024C
:100B900086E191E00E9472020E94800119CF80914B
:100BA000890290918A020C947006F8940C941508AE
:100BB0000F931F93CF93DF938230910510F482E05F
:100BC00090E0E0919202F091930220E030E0A0E00A
:100BD000B0E0309719F140815181028113814817AB
:100BE0005907C8F08417950769F4109731F01296E9
:100BF0000C93129713961C9327C0009392021093A4
:100C0000930222C02115310519F04217530718F439
:100C10009A01BD01EF01DF01F801DBCF211531059C
:100C2000F9F0281B390B2430310580F48A819B812F
:100C30006115710521F0FB019383828304C09093B9
:100C4000930280939202FE01329644C0FE01E20FAD
:100C5000F31F8193919322503109398328833AC03D
:100C60002091900230919102232B41F420910201B6
:100C70003091030130939102209390022091000162
:100C8000309101012115310541F42DB73EB7409156
:100C9000040150910501241B350BE0919002F09165
:100CA0009102E217F307A0F42E1B3F0B2817390718
:100CB00078F0AC014E5F5F4F2417350748F04E0FB8
:100CC0005F1F50939102409390028193919302C0D1
:100CD000E0E0F0E0CF01DF91CF911F910F910895F7
:100CE000CF93DF93009709F481C0FC013297138200
:100CF0001282A0919202B0919302109781F4208108
:100D00003181820F931F2091900230919102281718
:100D1000390751F5F0939102E093900267C0ED011D
:100D200020E030E0CE17DF0740F44A815B819E016E
:100D300041155105F1F0EA01F5CFD383C28340811B
:100D40005181840F951FC817D90759F4888199815B
:100D5000840F951F0296918380838A819B81938360
:100D600082832115310529F4F0939302E0939202D6
:100D70003DC0E901FB83EA8349915991C40FD51F16
:100D8000EC17FD0761F480819181840F951F029615
:100D9000E90199838883828193819B838A83E0E040
:100DA000F0E012968D919C911397009719F0FD0138
:100DB000DC01F7CF8D919C9111979D012E5F3F4FE4
:100DC000820F931F209190023091910228173907CA
:100DD00069F4309729F4109293021092920202C0A3
:100DE00013821282B0939102A0939002DF91CF916F
:100DF0000895A0E0B0E0EFEFF6E00C94DC07EC0122
:100E0000009721F4CB010E94D805B4C0FC01E60F85
:100E1000F71F9C0122503109E217F30708F4A8C01C
:100E2000D9010D911C91119706171707B0F00530E5
:100E3000110508F49BC0C80104978617970708F4AA
:100E400095C002501109061B170B019311936D9366
:100E50007C93CF010E94700689C05B01A01AB10A81
:100E60004C01800E911EA0919202B0919302612CD0
:100E7000712CE12CF12C109709F446C08D919C91B6
:100E80001197A815B905B1F56C0142E0C40ED11C4B
:100E9000CA14DB0478F14C018A189B08640142E013
:100EA000C40ED11C1296BC9012971396AC91B5E06B
:100EB000CB16D10440F0B282A38391828082D90103
:100EC0006D937C9309C00E5F1F4F800F911FF90136
:100ED00091838083EB2DFA2FE114F10431F0D701D7
:100EE0001396FC93EE93129741C0F0939302E09314
:100EF00092023CC06816790608F43C017D01129606
:100F00000D90BC91A02DB7CF80919002909191024D
:100F100088169906E1F466167706C8F480910001F8
:100F200090910101009741F48DB79EB74091040163
:100F300050910501841B950BE817F907C8F4F0934D
:100F40009102E0939002F901718360830FC0CB019D
:100F50000E94D8057C01009759F0A801BE010E94AB
:100F6000BF07CE010E947006C70104C0CE0102C0B7
:100F700080E090E0CDB7DEB7EEE00C94F807FB011F
:100F8000DC0102C001900D9241505040D8F7089505
:100F9000FB01DC018D91019080190110D9F3990BAF
:100FA0000895FB01DC0101900D920020E1F7089506
:100FB0002F923F924F925F926F927F928F929F9269
:100FC000AF92BF92CF92DF92EF92FF920F931F9357
:100FD000CF93DF93CDB7DEB7CA1BDB0B0FB6F89408
:100FE000DEBF0FBECDBF09942A88398848885F8448
:100FF0006E847D848C849B84AA84B984C884DF80B9
:10100000EE80FD800C811B81AA81B981CE0FD11D9C
:101010000FB6F894DEBF0FBECDBFED010895EE0F01
:10102000FF1F0590F491E02D099410E0CDE5D0E08C
:1010300004C0FE010E940F082196CE35D107C9F7E2
:04104000F894FFCF52
:1010440000009402200000000000A7008501700148
:10105400F4005401E900506C656173652074797083
:1010640065206120636F6D6D616E6420746F20650F
:10107400786563757465000A00696E697400496E69
:10108400697420696E2070726F63657373005374A2
:10109400617274696E67206D6F746F72006D6F7426
:1010A4006F72526576657273650053746172746908
:1010B4006E67206D6F746F7220696E20726576653D
:1010C400727365006D6F746F7253746F7000537434
:1010D4006F7070696E67206D6F746F7200666173F4
:1010E40074426C696E6B0066617374426C696E6BFA
:1010F40020696E2070726F6365737300736C6F7711
:10110400426C696E6B00496E76616C696420636F32
:061114006D6D616E6400C8
:00000001FF
