:100000000C9435000C945D000C945D000C945D0024
:100010000C945D000C945D000C945D000C945D00EC
:100020000C945D000C945D000C945D000C945D00DC
:100030000C945D000C945D000C945D000C945D00CC
:100040000C9420020C945D000C94E6010C94AB011E
:100050000C945D000C945D000C945D000C945D00AC
:100060000C945D000C945D006A0211241FBECFEF5A
:10007000D8E0DEBFCDBF11E0A0E0B1E0E0E0F8E005
:1000800002C005900D92A231B107D9F721E0A2E19B
:10009000B1E001C01D92A73CB207E1F710E0C5E353
:1000A000D0E004C02197FE010E94F803C433D107B9
:1000B000C9F70E94A5020C94D3030C9400000F937F
:1000C0001F93CF93DF93FC01A685B7858D01005C5C
:1000D0001F4FE8018881998101968F739927AD019F
:1000E0004E5B5F4FEA012881398128173907D1F328
:1000F000E80128813981A20FB31F6C93A685B785CB
:10010000A05CBF4F11969C938E93A689B7892C91C2
:1001100081E090E0078C02C0880F991F0A94E2F7F3
:10012000822B8C9381E081A30488F589E02D808166
:100130008064808381E090E0DF91CF911F910F91E7
:100140000895682F85EA91E00C945F00FC0181A17D
:10015000882329F0A489B5898C9186FFFBCF11A251
:100160000895FC01A485B585FD01E05CFF4F208169
:1001700031813296808191812817390779F0808109
:100180009181A80FB91F8C91208131812F5F3F4F42
:100190002F7333273183208390E008958FEF9FEFF3
:1001A0000895DC011C96ED91FC911D97DF01A05C88
:1001B000BF4F2D913C91119712968D919C91119763
:1001C0002817390739F08D919C91E80FF91F80812C
:1001D00090E008958FEF9FEF0895FC012485358509
:1001E000F901E05CFF4F808191813296208131815D
:1001F000821B930B8F739927089585EA91E00C94E5
:10020000ED000895CF92DF92EF92FF920F931F932C
:10021000CF93DF936C01EB017B01E40EF51E00E050
:1002200010E0CE15DF0561F06991D601ED91FC91EA
:100230000190F081E02DC6010995080F191FF1CF3B
:10024000C801DF91CF911F910F91FF90EF90DF9048
:10025000CF9008953FB7F8948091170190911801BD
:10026000A0911901B0911A0126B5A89B05C02F3F96
:1002700019F00196A11DB11D3FBFBA2FA92F982FCC
:100280008827820F911DA11DB11DBC01CD0142E047
:10029000660F771F881F991F4A95D1F708958F928F
:1002A0009F92AF92BF92EF92FF920F931F93CF93C3
:1002B000DF93CDB7DEB7A1970FB6F894DEBF0FBEC0
:1002C000CDBF162F042F19A2423008F40AE07E0198
:1002D00021E2E20EF11C802E912CA12CB12C612F79
:1002E000A50194010E94D603029F1019112481E0F8
:1002F000E81AF1081A3014F4105D01C0195CF70116
:100300001083122F732FCA01232B242B252B39F78F
:10031000E114F10469F001900020E9F73197AF0191
:100320004E195F09B70185EA91E00E94020102C0FF
:1003300080E090E0A1960FB6F894DEBF0FBECDBF6F
:10034000DF91CF911F910F91FF90EF90BF90AF90F1
:100350009F908F9008951F920F920FB60F921124C5
:100360002F933F938F939F93EF93FF9320915D0182
:1003700030915E0180915F019091600128173907EB
:1003800031F48091C1008F7D8093C10014C0E09151
:100390005F01F0916001E35EFE4F208180915F017B
:1003A0009091600101968F739927909360018093DB
:1003B0005F012093C600FF91EF919F918F913F9134
:1003C0002F910F900FBE0F901F9018951F920F92B4
:1003D0000FB60F9211242F934F935F938F939F9398
:1003E000EF93FF938091C00082FD1CC02091C60056
:1003F0008091A1019091A2014091A3015091A4018B
:1004000001968F7399274817590771F0E091A10160
:10041000F091A201EF59FE4F20839093A2018093A7
:10042000A10102C08091C600FF91EF919F918F9131
:100430005F914F912F910F900FBE0F901F901895C5
:100440001F920F920FB60F9211242F933F938F9309
:100450009F93AF93BF938091130190911401A0914A
:100460001501B09116013091120123E0230F2D37B1
:1004700020F40196A11DB11D05C026E8230F0296A8
:10048000A11DB11D209312018093130190931401BB
:10049000A0931501B0931601809117019091180156
:1004A000A0911901B0911A010196A11DB11D80936F
:1004B000170190931801A0931901B0931A01BF91ED
:1004C000AF919F918F913F912F910F900FBE0F9001
:1004D0001F901895E5EAF1E01382128288EE93E00E
:1004E000A0E0B0E084839583A683B78386E091E0A3
:1004F0009183808381E691E0958784878DE191E007
:100500009787868785EC90E0918B808B84EC90E0D8
:10051000938B828B80EC90E0958B848B81EC90E0C8
:10052000978B868B82EC90E0918F808F86EC90E0A9
:10053000938F828F84E0848F83E0858F87E0868F1E
:1005400085E0878F81E080A30895789484B58260E8
:1005500084BD84B5816084BD85B5826085BD85B567
:10056000816085BD80916E00816080936E001092E5
:100570008100809181008260809381008091810060
:1005800081608093810080918000816080938000F1
:100590008091B10084608093B1008091B00081604F
:1005A0008093B00080917A00846080937A0080917B
:1005B0007A00826080937A0080917A0081608093D3
:1005C0007A0080917A00806880937A001092C1004E
:1005D000E091B901F091BA0181E090E09C010090B6
:1005E000C50102C0220F331F0A94E2F72083E09175
:1005F000B501F091B6011082E091B701F091B80118
:100600002FEC20831092C601E091BB01F091BC0158
:1006100040819C010090C10102C0220F331F0A9447
:10062000E2F7242B2083E091BB01F091BC014081D3
:100630009C010090C20102C0220F331F0A94E2F70E
:10064000242B2083E091BB01F091BC0140819C01EF
:100650000090C30102C0220F331F0A94E2F7242B3B
:100660002083E091BB01F091BC0120810090C40186
:1006700002C0880F991F0A94E2F780958223808335
:1006800010E4C1E0D0E010937C0080917A00806497
:1006900080937A0080917A0086FDFCCF809178006B
:1006A0002091790090E0922B6C01092E000CEE084D
:1006B000FF08833C21E09207A4F080910001909113
:1006C0000101892B21F580911B0190911C0101965C
:1006D00090931C0180931B01D0930101C0930001F2
:1006E00016C0823C21E0920721F010920101109285
:1006F000000197FF0CC08DE20E94A10066277727BA
:10070000CB016C197D098E099F094AE003C04AE0BC
:10071000C701B6010E944F018DE00E94A1008AE04E
:100720000E94A100C0901B01D0901C010D2C000C58
:10073000EE08FF08F7FE0CC08DE20E94A1006627BC
:100740007727CB016C197D098E099F094AE003C008
:100750004AE0C701B6010E944F018DE00E94A1004E
:100760008AE00E94A1000E942A017B0182E3882E78
:10077000912CA12CB12C0E942A016E197F09683E90
:100780007340C8F321E0821A9108A108B10888E1FA
:10079000E81A8CEFF80A81149104A104B10459F706
:1007A0000E94FD0070CFF8940C94FE03A1E21A2E73
:1007B000AA1BBB1BFD010DC0AA1FBB1FEE1FFF1F05
:1007C000A217B307E407F50720F0A21BB30BE40B55
:1007D000F50B661F771F881F991F1A9469F760959C
:1007E0007095809590959B01AC01BD01CF01089556
:1007F000EE0FFF1F0590F491E02D0994F894FFCFC0
:100800000100000000005F000201ED00B100D10016
:02081000A60040
:00000001FF
