:100000000C9435000C945D000C945D000C945D0024
:100010000C945D000C945D000C945D000C945D00EC
:100020000C945D000C945D000C945D000C945D00DC
:100030000C945D000C945D000C945D000C945D00CC
:100040000C945D020C945D000C9423020C94E80166
:100050000C945D000C945D000C945D000C945D00AC
:100060000C945D000C945D00A70211241FBECFEF1D
:10007000D8E0DEBFCDBF11E0A0E0B1E0E8EAF8E0F3
:1000800002C005900D92A231B107D9F721E0A2E19B
:10009000B1E001C01D92A13DB207E1F710E0C5E358
:1000A000D0E004C02197FE010E944C04C433D10764
:1000B000C9F70E94E2020C9427040C9400000F93ED
:1000C0001F93CF93DF93FC01A685B7858D01005C5C
:1000D0001F4FE8018881998101968F739927AD019F
:1000E0004E5B5F4FEA012881398128173907D1F328
:1000F000E80128813981A20FB31F6C93A685B785CB
:10010000A05CBF4F11969C938E93A689B7892C91C2
:1001100081E090E0078C02C0880F991F0A94E2F7F3
:10012000822B8C9381E081A30488F589E02D808166
:100130008064808381E090E0DF91CF911F910F91E7
:100140000895CF93DF936DE08FEA91E00E945F0006
:10015000EC016AE08FEA91E00E945F008C0F9D1F26
:10016000DF91CF910895FC0181A1882329F0A48912
:10017000B5898C9186FFFBCF11A20895FC01A4855F
:10018000B585FD01E05CFF4F208131813296808191
:1001900091812817390779F080819181A80FB91FC3
:1001A0008C91208131812F5F3F4F2F733327318313
:1001B000208390E008958FEF9FEF0895DC011C9657
:1001C000ED91FC911D97DF01A05CBF4F2D913C91FB
:1001D000119712968D919C9111972817390739F034
:1001E0008D919C91E80FF91F808190E008958FEF29
:1001F0009FEF0895FC0124853585F901E05CFF4FF0
:1002000080819181329620813181821B930B8F7383
:10021000992708958FEA91E00C94FA000895CF92FF
:10022000DF92EF92FF920F931F93CF93DF936C01B6
:10023000EB017B01E40EF51E00E010E0CE15DF05BA
:1002400061F06991D601ED91FC910190F081E02D72
:10025000C6010995080F191FF1CFC801DF91CF9191
:100260001F910F91FF90EF90DF90CF9008953FB7CF
:10027000F8948091130190911401A0911501B0910F
:10028000160126B5A89B05C02F3F19F00196A11DA8
:10029000B11D3FBFBA2FA92F982F8827820F911D1C
:1002A000A11DB11DBC01CD0142E0660F771F881F63
:1002B000991F4A95D1F708958F929F92AF92BF925E
:1002C000EF92FF920F931F93CF93DF93CDB7DEB7DB
:1002D000A1970FB6F894DEBF0FBECDBF162F042F27
:1002E00019A2423008F40AE07E0121E2E20EF11C7C
:1002F000802E912CA12CB12C612FA50194010E947C
:100300002A04029F1019112481E0E81AF1081A301A
:1003100014F4105D01C0195CF7011083122F732FC4
:10032000CA01232B242B252B39F7E114F10469F0A2
:1003300001900020E9F73197AF014E195F09B7012D
:100340008FEA91E00E940F0102C080E090E0A19648
:100350000FB6F894DEBF0FBECDBFDF91CF911F91D6
:100360000F91FF90EF90BF90AF909F908F90089566
:10037000CF92DF92EF92FF92CF93DF936C01990FB0
:10038000EE08FF08F7FE13C06DE28FEA91E00E94CD
:100390005F00EC0166277727CB016C197D098E0978
:1003A0009F094AE00E945C01C80FD91F06C04AE0BD
:1003B000C701B6010E945C01EC010E94A1008C0FF4
:1003C0009D1FDF91CF91FF90EF90DF90CF90089528
:1003D0001F920F920FB60F9211242F933F938F937A
:1003E0009F93EF93FF932091670130916801809173
:1003F000690190916A012817390731F48091C10091
:100400008F7D8093C10014C0E0916901F0916A0171
:10041000E95DFE4F20818091690190916A0101960A
:100420008F73992790936A01809369012093C60086
:10043000FF91EF919F918F913F912F910F900FBE60
:100440000F901F9018951F920F920FB60F921124C4
:100450002F934F935F938F939F93EF93FF9380918D
:10046000C00082FD1CC02091C6008091AB0190911C
:10047000AC014091AD015091AE0101968F73992767
:100480004817590771F0E091AB01F091AC01E559C3
:10049000FE4F20839093AC018093AB0102C080910A
:1004A000C600FF91EF919F918F915F914F912F9196
:1004B0000F900FBE0F901F9018951F920F920FB6BE
:1004C0000F9211242F933F938F939F93AF93BF93DA
:1004D0008091170190911801A0911901B0911A0112
:1004E0003091120123E0230F2D3720F40196A11D36
:1004F000B11D05C026E8230F0296A11DB11D209352
:1005000012018093170190931801A0931901B093E1
:100510001A018091130190911401A0911501B091DD
:1005200016010196A11DB11D809313019093140132
:10053000A0931501B0931601BF91AF919F918F9138
:100540003F912F910F900FBE0F901F901895EFEADB
:10055000F1E01382128288EE93E0A0E0B0E08483A1
:100560009583A683B78386E091E0918380838BE6B1
:1005700091E09587848787E291E09787868785EC6D
:1005800090E0918B808B84EC90E0938B828B80EC5D
:1005900090E0958B848B81EC90E0978B868B82EC3E
:1005A00090E0918F808F86EC90E0938F828F84E033
:1005B000848F83E0858F87E0868F85E0878F81E059
:1005C00080A30895789484B5826084BD84B58160E9
:1005D00084BD85B5826085BD85B5816085BD80910E
:1005E0006E00816080936E00109281008091810086
:1005F000826080938100809181008160809381007E
:10060000809180008160809380008091B10084603F
:100610008093B1008091B00081608093B0008091A0
:100620007A00846080937A0080917A00826080935F
:100630007A0080917A00816080937A0080917A00BC
:10064000806880937A001092C100E091C301F0911C
:10065000C40181E090E09C010090CF0102C0220F14
:10066000331F0A94E2F72083E091BF01F091C001AB
:100670001082E091C101F091C2012FEC2083109211
:10068000D001E091C501F091C60140819C0100902C
:10069000CB0102C0220F331F0A94E2F7242B2083E0
:1006A000E091C501F091C60140819C010090CC0110
:1006B00002C0220F331F0A94E2F7242B2083E0911B
:1006C000C501F091C60140819C010090CD0102C09E
:1006D000220F331F0A94E2F7242B2083E091C501F7
:1006E000F091C60120810090CE0102C0880F991FB1
:1006F0000A94E2F780958223808390E4B92E01E08A
:1007000010E02FB7F8948091170190911801A091F3
:100710001901B0911A012FBF8093230190932401F6
:10072000A0932501B0932601B0927C0080917A00BD
:10073000806480937A0080917A0086FDFCCF80915E
:1007400078002091790090E0922B833C21E0920781
:1007500084F12091000130910101232B91F520912A
:100760002101309122012F5F3F4F309322012093CE
:100770002101109301010093000140912301509148
:100780002401609125017091260120911D01309175
:100790001E01FA01E21BF30BF0931C01E0931B0115
:1007A00040931D0150931E0160931F01709320011F
:1007B00008C0823CF1E09F0721F0109201011092E5
:1007C00000010E94B80180912101909122010E94B4
:1007D000B8016091230170912401809125019091CD
:1007E00026014AE00E945C010E94A10060911D0167
:1007F00070911E0180911F01909120014AE00E949A
:100800005C010E94A10080911B0190911C010E943B
:10081000B8010E943701EB0182E3C82ED12CE12CF4
:10082000F12C0E9437016C1B7D0B683E7340C8F3AE
:1008300081E0C81AD108E108F108C851DC4FC114A1
:10084000D104E104F10469F70E940A015ACFF89437
:100850000C945204A1E21A2EAA1BBB1BFD010DC071
:10086000AA1FBB1FEE1FFF1FA217B307E407F50760
:1008700020F0A21BB30BE40BF50B661F771F881F3C
:10088000991F1A9469F760957095809590959B01D2
:10089000AC01BD01CF010895EE0FFF1F0590F4914B
:0808A000E02D0994F894FFCF4C
:1008A8000100000000005F000F01FA00BE00DE003A
:0208B800B3008B
:00000001FF
