:100000000C945D000C9485000C9485000C94850084
:100010000C9485000C9485000C9485000C9485004C
:100020000C9485000C9485000C9485000C9485003C
:100030000C9485000C9485000C9485000C9485002C
:100040000C9483020C9485000C9449020C940E02CB
:100050000C9485000C9485000C9485000C9485000C
:100060000C9485000C94850000000007000201003C
:100070000003040600000000000000000000000073
:10008000250028002B0000000000240027002A0083
:10009000040404040404040402020202020203032E
:1000A0000303030301020408102040800102040836
:1000B0001020010204081020CD0211241FBECFEF32
:1000C000D8E0DEBFCDBF11E0A0E0B1E0EAE5FAE0A4
:1000D00002C005900D92A437B107D9F722E0A4E73A
:1000E000B1E001C01D92A333B207E1F710E0CDE506
:1000F000D0E004C02197FE010E942505CC35D10730
:10010000C9F70E9408030C9400050C94000090E0CD
:10011000FC01EC55FF4F2491FC01E057FF4F849107
:10012000882399F090E0880F991FFC01EA57FF4F50
:10013000A591B491FC01E458FF4F859194918FB73C
:10014000F894EC91E22BEC938FBF08950F931F93DB
:10015000CF93DF93FC01A685B7858D01005C1F4F0F
:10016000E8018881998101968F739927AD014E5BD3
:100170005F4FEA012881398128173907D1F3E80157
:1001800028813981A20FB31F6C93A685B785A05C27
:10019000BF4F11969C938E93A689B7892C9181E0CD
:1001A00090E0078C02C0880F991F0A94E2F7822B17
:1001B0008C9381E081A30488F589E02D808180649F
:1001C000808381E090E0DF91CF911F910F9108959E
:1001D000CF93DF936DE081E192E00E94A600EC01F5
:1001E0006AE081E192E00E94A6008C0F9D1FDF91E2
:1001F000CF910895FC0181A1882329F0A489B589B4
:100200008C9186FFFBCF11A20895FC01A485B585D2
:10021000FD01E05CFF4F2081318132968081918128
:100220002817390779F080819181A80FB91F8C9127
:10023000208131812F5F3F4F2F73332731832083FC
:1002400090E008958FEF9FEF0895DC011C96ED91EB
:10025000FC911D97DF01A05CBF4F2D913C91119740
:1002600012968D919C9111972817390739F08D912D
:100270009C91E80FF91F808190E008958FEF9FEF28
:100280000895FC0124853585F901E05CFF4F8081EC
:100290009181329620813181821B930B8F73992734
:1002A000089581E192E00C9441010895CF92DF928C
:1002B000EF92FF920F931F93CF93DF936C01EB01AB
:1002C0007B01E40EF51E00E010E0CE15DF0561F0C5
:1002D0006991D601ED91FC910190F081E02DC6016C
:1002E0000995080F191FF1CFC801DF91CF911F9118
:1002F0000F91FF90EF90DF90CF90089590E0FC0178
:10030000E859FF4F2491FC01EC55FF4F3491FC015B
:10031000E057FF4FE491EE2309F43CC0222339F16A
:10032000233091F038F42130A9F0223001F584B562
:100330008F7D12C0263091F02730A1F02430B9F41F
:10034000809180008F7D03C0809180008F778093A3
:1003500080000DC084B58F7784BD09C08091B00046
:100360008F7703C08091B0008F7D8093B000F0E064
:10037000EE0FFF1FE458FF4FA591B4919FB7F8947B
:10038000611104C08C913095382302C0EC913E2B52
:100390003C939FBF08953FB7F89480917501909169
:1003A0007601A0917701B091780126B5A89B05C090
:1003B0002F3F19F00196A11DB11D3FBFBA2FA92FE4
:1003C000982F8827820F911DA11DB11DBC01CD0161
:1003D00042E0660F771F881F991F4A95D1F708954D
:1003E000009769F0FC0101900020E9F73197AF0117
:1003F000481B590BBC0181E192E00C94560180E04E
:1004000090E00895CF93DF930E94F001EC010E94E9
:10041000E8008C0F9D1FDF91CF9108951F920F92DE
:100420000FB60F9211242F933F938F939F93EF93C7
:10043000FF932091C9013091CA018091CB01909125
:10044000CC012817390731F48091C1008F7D80934A
:10045000C10014C0E091CB01F091CC01E757FE4FF1
:1004600020818091CB019091CC0101968F739927C7
:100470009093CC018093CB012093C600FF91EF9124
:100480009F918F913F912F910F900FBE0F901F90D2
:1004900018951F920F920FB60F9211242F934F931E
:1004A0005F938F939F93EF93FF938091C00082FDA2
:1004B0001CC02091C60080910D0290910E024091C7
:1004C0000F025091100201968F7399274817590710
:1004D00071F0E0910D02F0910E02E353FE4F208384
:1004E00090930E0280930D0202C08091C600FF918E
:1004F000EF919F918F915F914F912F910F900FBE30
:100500000F901F9018951F920F920FB60F92112403
:100510002F933F938F939F93AF93BF9380917901D4
:1005200090917A01A0917B01B0917C01309174018E
:1005300023E0230F2D3720F40196A11DB11D05C026
:1005400026E8230F0296A11DB11D2093740180930C
:10055000790190937A01A0937B01B0937C01809103
:10056000750190917601A0917701B0917801019683
:10057000A11DB11D8093750190937601A093770121
:10058000B0937801BF91AF919F918F913F912F913F
:100590000F900FBE0F901F901895E1E1F2E01382CB
:1005A000128288EE93E0A0E0B0E084839583A68376
:1005B000B78388E091E0918380838DEC91E095870B
:1005C000848789E891E09787868785EC90E0918B16
:1005D000808B84EC90E0938B828B80EC90E0958B09
:1005E000848B81EC90E0978B868B82EC90E0918FEE
:1005F000808F86EC90E0938F828F84E0848F83E0FD
:10060000858F87E0868F85E0878F81E080A30895BE
:10061000CF93DF93CDB7DEB7A1970FB6F894DEBFC7
:100620000FBECDBF789484B5826084BD84B58160EF
:1006300084BD85B5826085BD85B5816085BD8091AD
:100640006E00816080936E00109281008091810025
:10065000826080938100809181008160809381001D
:10066000809180008160809380008091B1008460DF
:100670008093B1008091B00081608093B000809140
:100680007A00846080937A0080917A0082608093FF
:100690007A0080917A00816080937A0080917A005C
:1006A000806880937A001092C1008DE00E948700DC
:1006B00085E00E94870084E00E94870083E00E941A
:1006C0008700E0912502F091260281E090E09C01F4
:1006D0000090310202C0220F331F0A94E2F72083F8
:1006E000E0912102F09122021082E0912302F09128
:1006F00024022FEC208310923202E0912702F09125
:10070000280240819C0100902D0202C0220F331F5D
:100710000A94E2F7242B2083E0912702F09128022B
:1007200040819C0100902E0202C0220F331F0A94C8
:10073000E2F7242B2083E0912702F09128024081E8
:100740009C0100902F0202C0220F331F0A94E2F78F
:10075000242B2083E0912702F09128022081009031
:10076000300202C0880F991F0A94E2F78095822315
:10077000808384E191E00E9402029AE0892E912C0C
:10078000A12CB12CEE24EA94F12CCC24C394D12CCE
:1007900081E192E00E944101181619060CF096C002
:1007A00081E192E00E940501909388018093870186
:1007B0008936910529F485E391E00E94020282C006
:1007C0008337910571F485E491E00E940202F09272
:1007D0000101E09200016FEF85E00E947E0161E07F
:1007E00008C08D36910569F484E591E00E9402020B
:1007F00060E084E00E947E0160E083E00E947E0170
:1008000061C083E691E00E9402022090870130904F
:100810008801032C000C4408550857FE2DC06DE2DA
:1008200081E192E00E94A600D201C1014424552436
:100830003201481A590A6A0A7B0A19A28E010F5D11
:100840001F4FC301B201A50194010E940305842D2D
:100850009AE0299F80191124015011098A3014F45B
:10086000805D01C0895CD8018C9329013A01232B5A
:10087000242B252B31F721C0622C732DC20119A224
:100880008E010F5D1F4F662DA50194010E94030587
:10089000862DBAE02B9F80191124015011098A304E
:1008A00014F4805D01C0895CF8018083622E732F8F
:1008B000CA01232B242B252B31F7C8010E94F001FC
:1008C0000E94E80084E191E00E9402022FB7F894B0
:1008D0008091790190917A01A0917B01B0917C0186
:1008E0002FBF8093830190938401A0938501B093DF
:1008F0008601F0E4F0937C0080917A00806480931C
:100900007A0080917A0086FDFCCF8091780020915A
:10091000790090E0922B833C21E0920734F18091A2
:10092000020190910301892B39F5D0920301C09205
:1009300002018091830190918401A0918501B09181
:10094000860120917F0130918001AC01421B530B45
:1009500050937E0140937D0180937F0190938001AD
:10096000A0938101B093820107C0823C914021F0A5
:10097000109203011092020120917D0130917E01BD
:1009800080910001909101012A3F310544F40297C2
:1009900097FF0AC010920101109200010EC002964A
:1009A0008F3F910509F02CF4909301018093000191
:1009B00004C0F0920101E09200016091000185E025
:1009C0000E947E010E94CB018B0182E3482E512CB4
:1009D000612C712C0E94CB01601B710B683E73402F
:1009E000C8F391E0491A51086108710808511C4F79
:1009F000411451046104710469F70E945101C8CE89
:100A0000F8940C942B05A1E21A2EAA1BBB1BFD0126
:100A10000DC0AA1FBB1FEE1FFF1FA217B307E407DD
:100A2000F50720F0A21BB30BE40BF50B661F771F35
:100A3000881F991F1A9469F7609570958095909515
:100A40009B01AC01BD01CF010895EE0FFF1F059082
:0A0A5000F491E02D0994F894FFCF13
:100A5A00FF00010000000000A60056014101050147
:100A6A002501FA00506C6561736520747970652000
:100A7A006120636F6D6D616E6420746F20657865A7
:100A8A006375746500496E697420696E2070726FAF
:100A9A0063657373005374617274696E67206D6F56
:100AAA00746F720053746F7070696E67206D6F7423
:100ABA006F7200496E76616C696420636F6D6D6157
:040ACA006E64000056
:00000001FF
