:100000000C9462000C948A000C948A000C948A0070
:100010000C948A000C948A000C948A000C948A0038
:100020000C948A000C948A000C948A000C948A0028
:100030000C948A000C948A000C948A000C948A0018
:100040000C94EF050C948A000C9474060C943906F9
:100050000C948A000C948A000C948A000C948A00F8
:100060000C948A000C948A000000000023002600F3
:10007000290000000000240027002A0000000000E2
:10008000250028002B0004040404040404040202D4
:100090000202020203030303030301020408102007
:1000A0004080010204081020010204081020000012
:1000B0000007000201000003040600000000000029
:1000C0000000AE0611241FBECFEFD8E0DEBFCDBFCB
:1000D00011E0A0E0B1E0EAE4F1E102C005900D9288
:1000E000AC34B107D9F722E0ACE4B1E001C01D9215
:1000F000AF30B207E1F710E0C2E6D0E004C02197CC
:10010000FE010E949D08C136D107C9F70E94F3067F
:100110000C949A080C940000833081F028F481300C
:1001200099F08230A1F008958630A9F08730B9F0B7
:100130008430D1F4809180008F7D03C08091800055
:100140008F7780938000089584B58F7702C084B53F
:100150008F7D84BD08958091B0008F7703C080911A
:10016000B0008F7D8093B00008951F93CF93DF93ED
:10017000282F30E0F901E255FF4F8491F901E6564E
:10018000FF4FD491F901EA57FF4FC491CC23C1F03E
:10019000162F81110E948C00EC2FF0E0EE0FFF1F54
:1001A000E458FF4FA591B4919FB7F894111104C082
:1001B0008C91D095D82302C0EC91DE2BDC939FBFAD
:1001C000DF91CF911F910895CF93DF9390E0FC01D1
:1001D000E656FF4F2491FC01EA57FF4F8491882394
:1001E00061F190E0880F991FFC01EE58FF4FC59117
:1001F000D491FC01E458FF4FA591B491611109C05D
:100200009FB7F8948881209582238883EC912E23D0
:100210000BC0623061F49FB7F8948881322F30951B
:1002200083238883EC912E2B2C939FBF06C08FB71E
:10023000F894E8812E2B28838FBFDF91CF9108950A
:100240003FB7F8948091510190915201A0915301D0
:10025000B091540126B5A89B05C02F3F19F0019617
:10026000A11DB11D3FBFBA2FA92F982F8827820F3C
:10027000911DA11DB11DBC01CD0142E0660F771F8C
:10028000881F991F4A95D1F70895CF92DF92EF9278
:10029000FF92CF93DF930E942001EB0182E3C82EEF
:1002A000D12CE12CF12C0E9420016C1B7D0B683EAF
:1002B0007340C8F381E0C81AD108E108F108C851B9
:1002C000DC4FC114D104E104F10469F7DF91CF914F
:1002D000FF90EF90DF90CF900895BC016E5F7F4F4D
:1002E000DC01ED91FC910190F081E02D40E0099559
:1002F00091E0811190E0892F089508958EBD00004E
:100300000DB407FEFDCF8EB508958CBD9DBD08953B
:100310000F931F93CF93DF93FC01A685B7858D01C3
:10032000005C1F4FE8018881998101968F7399279E
:10033000AD014E5B5F4FEA012881398128173907EB
:10034000D1F3E80128813981A20FB31F6C93A685F0
:10035000B785A05CBF4F11969C938E93A689B789F1
:100360002C9181E090E0078C02C0880F991F0A94BD
:10037000E2F7822B8C9381E081A30488F589E02D3C
:1003800080818064808381E090E0DF91CF911F9134
:100390000F910895CF93DF936DE08DED91E00E9472
:1003A0008801EC016AE08DED91E00E9488018C0FDC
:1003B0009D1FDF91CF910895FC0181A1882329F031
:1003C000A489B5898C9186FFFBCF11A20895FC0109
:1003D000A485B585FD01E05CFF4F20813181329617
:1003E000808191812817390779F080819181A80F48
:1003F000B91F8C91208131812F5F3F4F2F7333279D
:100400003183208390E008958FEF9FEF0895DC0102
:100410001C96ED91FC911D97DF01A05CBF4F2D91C3
:100420003C91119712968D919C911197281739073D
:1004300039F08D919C91E80FF91F808190E008952B
:100440008FEF9FEF0895FC0124853585F901E05C6D
:10045000FF4F80819181329620813181821B930BE5
:100460008F73992708958DED91E00C9423020895E0
:10047000CF92DF92EF92FF920F931F93CF93DF9370
:100480006C01EB017B01E40EF51E00E010E0CE15DF
:10049000DF0561F06991D601ED91FC910190F08149
:1004A000E02DC6010995080F191FF1CFC801DF9192
:1004B000CF911F910F91FF90EF90DF90CF90089513
:1004C000009769F0FC0101900020E9F73197AF0136
:1004D000481B590BBC018DED91E00C94380280E073
:1004E00090E00895DF92EF92FF920F931F93CF93C6
:1004F000DF938C01F62ED42EE52E83E590E00E944A
:10050000850160E0F80186850E94B50082E10E94C5
:100510007E01CD2DDE2DCE018F0D911D7C01EC16BF
:10052000FD0621F089910E947E01F9CF61E0F8017A
:100530008685DF91CF911F910F91FF90EF90DF9013
:100540000C94B5001F93CF93DF93EC01162F83E536
:1005500090E00E94850160E08E850E94B500812FA9
:1005600080680E947E0180E00E947E01182F61E079
:100570008E850E94B500812FDF91CF911F91089544
:100580000F931F93CF93DF93EC01062F142F83E576
:1005900090E00E94850160E08E850E94B500802F6A
:1005A0000E947E01812F0E947E0161E08E85DF9195
:1005B000CF911F910F910C94B500CF92DF92EF92E3
:1005C000FF920F931F93CF93DF93EC016B01142FD6
:1005D000790140E062E00E94C00244E06AE0CE019E
:1005E0000E94C00240E864E1CE010E94C002A60160
:1005F000612FCE010E94720243E062E0CE010E94B0
:10060000C00208E813E16AE0CE010E94A20282FF64
:1006100013C040E062E0CE010E94C00264E4CE015B
:100620000E94A202F701808362E4CE010E94A2022E
:10063000F701818380E004C00150110921F783E0B4
:10064000DF91CF911F910F91FF90EF90DF90CF90AE
:1006500008957F928F929F92AF92BF92CF92DF9236
:10066000EF92FF920F931F93CF93DF93EC014B0117
:10067000742E5901E114F10419F0F701408101C011
:1006800040E0D42EF0E1CF9ED00C112440E062E097
:10069000CE010E94C0024FE768E0CE010E94C00276
:1006A00040E864E1CE010E94C002A401672DCE01A2
:1006B0000E9472024D2D6AE1CE010E94C0024CE000
:1006C00062E0CE010E94C0026AE1CE010E94A20255
:1006D000482F40686AE1CE010E94C00280ED882E5A
:1006E00087E0982E68E0CE010E94A202982F9073B6
:1006F00041F480FD04C081E0881A910899F783E0F5
:1007000070C06CE0CE010E94A202982E837109F0A5
:1007100067C0A114B10409F45BC00115110509F407
:1007200057C064E1CE010E94A202882EF8018081A8
:10073000881508F451C08082882009F43FC083E501
:1007400090E00E94850160E08E850E94B500DD2466
:10075000DA94D80C82E90E947E01CC20A9F00FEF38
:1007600010E001C0000FCA94EAF782E90E947E01FE
:10077000202F2095F501908192238023092F082BAB
:1007800000838824839401C0812C282D30E08D14AF
:1007900050F48501020F131F82E90E947E01F801C7
:1007A00080838394F2CFA20EB31E80E00E947E016C
:1007B000F501808361E08E850E94B50068E1CE017D
:1007C0000E94A2028770E114F10411F0F701808306
:1007D00093FC04C080E005C084E003C082E001C057
:1007E00081E0DF91CF911F910F91FF90EF90DF900B
:1007F000CF90BF90AF909F908F907F900895AF92D1
:10080000BF92CF92EF92FF920F931F93CF93DF93FC
:1008100000D000D01F92CDB7DEB75C0182E08D839F
:1008200040E064E2C5010E94C00240E066E2C5010A
:100830000E94C00246E268E4C5010E94C00286E24E
:100840008B838D81823038F16CE1C5010E94A20258
:10085000482F4F776CE1C5010E94C00287E08C836E
:10086000C12CCE0104967C018E010B5F1F4F9E01AF
:100870002F5F3F4F41E0BE016D5F7F4FC5010E947A
:10088000290381110BC08D81823039F481E09C8174
:10089000911104C008C084E001C081E091E0823081
:1008A00019F090E001C091E0892F0F900F900F9008
:1008B0000F900F90DF91CF911F910F91FF90EF90CC
:1008C000CF90BF90AF9008952F923F924F925F923A
:1008D0006F927F928F929F92AF92BF92CF92DF9250
:1008E000EF92FF920F931F93CF93DF93CDB7DEB7B5
:1008F0002B970FB6F894DEBF0FBECDBF413508F081
:100900000AC1342E4B015C016CE10E94A202482F07
:100910004F776CE1C5010E94C0024424439432E049
:10092000431691F083E04816E1F091E04912F5C0DA
:1009300083E989833320D1F081E0F40190819530FF
:1009400008F480E0512C17C0F5E9F983332081F0D9
:1009500081E0F4019081983008F480E053E0552E56
:100960000AC087E9898346E0542E04C0512C02C096
:1009700033E0532E80E0D32CF8E05F9ED018112492
:10098000D7FCD12C882321F098E89B8333E001C069
:1009900032E021E09D2D977009F420E09D2D959582
:1009A00095959595290F31F4882309F491C038E085
:1009B000D30E8EC0811102C094E001C093E02917CC
:1009C00008F4922FE52DF0E03196E80DF91D232F64
:1009D0004191A1E0B0E0AC0FBD1FA20FB11D4C933F
:1009E0002F5F422F431B491798F3DECF8111DDC0E3
:1009F0009FE19D150CF493C080E2D82E90E79A8376
:100A00009B818C8189279D8189279E8189278F835E
:100A10009E01285F3F4F47E0BE016F5F7F4FC501DA
:100A20000E94DD028111A2C01A86E3E0EB87CE01AD
:100A300007963C0129E0222ECA844C2D4295407F26
:100A40004C0D6AE1C5010E94C002CE010A967C01EC
:100A50008E01055F1F4F9301422DBE016F5F7F4FD7
:100A6000C5010E942903182F823009F0BFCF6CE125
:100A7000C5010E94A20285FD98C08F7109F480E231
:100A8000282F30E04D2DDD0C550B421753070CF08D
:100A900044C0D82E85958595859591E0980F422F75
:100AA000477081E009F480E0890FE1E0F0E0EC0FAD
:100AB000FD1FE80FF11D215031092770332781E018
:100AC00090E001C0880F2A95EAF79081892B8083F6
:100AD0008FE18D150CF492CF9D2D97709A878D2DF7
:100AE0008595859585958E5F292FE0E18E9F200D58
:100AF00011242A8321E0911101C020E0222E280E2A
:100B000066246394712C6C0E7D1E680E711CF9E0D6
:100B1000F81BFB8791CF16E048C015E046C08B81DB
:100B2000883809F43FC082E094E0E52DF0E031968A
:100B3000E80DF91D980FA1E0B0E0AC0FBD1FA80FA4
:100B4000B11D2C9121938F5F8913F5CF8B85833055
:100B500029F58A85811122C09E012D5F3F4F41E01A
:100B6000B301C5010E94DD02882311F0182F1DC0BA
:100B70009B81F3018181981313C09C81828198131A
:100B80000FC0808182FF02C04394C9CEF4018387E5
:100B9000842D880F480E4394408207C011E005C0A1
:100BA00017E003C083E093E0C0CF812F2B960FB6F0
:100BB000F894DEBF0FBECDBFDF91CF911F910F9193
:100BC000FF90EF90DF90CF90BF90AF909F908F906D
:100BD0007F906F905F904F903F902F9008951F925D
:100BE0000F920FB60F9211242F933F938F939F93E1
:100BF000AF93BF9380914D0190914E01A0914F0111
:100C0000B091500130914C0123E0230F2D3720F497
:100C10000196A11DB11D05C026E8230F0296A11D56
:100C2000B11D20934C0180934D0190934E01A093F0
:100C30004F01B09350018091510190915201A091C8
:100C40005301B09154010196A11DB11D8093510132
:100C500090935201A0935301B0935401BF91AF916F
:100C60009F918F913F912F910F900FBE0F901F90EA
:100C700018951F920F920FB60F9211242F933F9346
:100C80008F939F93EF93FF9320919501309196015D
:100C900080919701909198012817390731F480913C
:100CA000C1008F7D8093C10014C0E0919701F09145
:100CB0009801EB5AFE4F2081809197019091980105
:100CC00001968F73992790939801809397012093B1
:100CD000C600FF91EF919F918F913F912F910F90BF
:100CE0000FBE0F901F9018951F920F920FB60F9284
:100CF00011242F934F935F938F939F93EF93FF93C1
:100D00008091C00082FD1CC02091C6008091D90155
:100D10009091DA014091DB015091DC0101968F73D3
:100D200099274817590771F0E091D901F091DA013C
:100D3000E756FE4F20839093DA018093D90102C0D9
:100D40008091C600FF91EF919F918F915F914F919C
:100D50002F910F900FBE0F901F901895EDEDF1E0C1
:100D60001382128288EE93E0A0E0B0E08483958342
:100D7000A683B78384E091E09183808389E991E041
:100D80009587848785E591E09787868785EC90E055
:100D9000918B808B84EC90E0938B828B80EC90E045
:100DA000958B848B81EC90E0978B868B82EC90E026
:100DB000918F808F86EC90E0938F828F84E0848F78
:100DC00083E0858F87E0868F85E0878F81E080A331
:100DD000EFEFF1E084E191E0918380838AE0868700
:100DE00089E087870895CF93DF93CDB7DEB7A197CA
:100DF0000FB6F894DEBF0FBECDBF789484B5826085
:100E000084BD84B5816084BD85B5826085BD85B5AE
:100E1000816085BD80916E00816080936E0010922C
:100E200081008091810082608093810080918100A7
:100E30008160809381008091800081608093800038
:100E40008091B10084608093B1008091B000816096
:100E50008093B00080917A00846080937A008091C2
:100E60007A00826080937A0080917A00816080931A
:100E70007A0080917A00806880937A001092C10095
:100E8000E091F101F091F20181E090E09C0100908D
:100E9000FD0102C0220F331F0A94E2F72083E09184
:100EA000ED01F091EE011082E091EF01F091F0017F
:100EB0002FEC20831092FE01E091F301F091F401F8
:100EC00040819C010090F90102C0220F331F0A9457
:100ED000E2F7242B2083E091F301F091F4014081AB
:100EE0009C010090FA0102C0220F331F0A94E2F71E
:100EF000242B2083E091F301F091F40140819C01C7
:100F00000090FB0102C0220F331F0A94E2F7242B4A
:100F10002083E091F301F091F40120810090FC0125
:100F200002C0880F991F0A94E2F78095822380837C
:100F300061E08AE00E94B50061E08AE00E94E4007E
:100F40008CB580618CBD8CB580648CBD61E08DE01A
:100F50000E94E40061E08BE00E94E40061E0809187
:100F60000D020E94E40061E080910D020E94B50034
:100F700080910E028F3F41F44FE062E08FEF91E0ED
:100F80000E94C00213E025C060E00E94E4002091AE
:100F90000E0230E0F901E255FF4F8491F901E65667
:100FA000FF4F0491F901EA57FF4F14911123D9F033
:100FB00081110E948C00E12FF0E0EE0FFF1FE85935
:100FC000FF4FA591B491EC91E02369F0D5CF11507A
:100FD000F9F00E94450162E08FEF91E00E94A202C9
:100FE00084FF16C0F4CF61E080910E020E94E400FD
:100FF00060E080910E020E94B50082E090E00197CF
:10100000F1F761E080910E020E94B5000E94450157
:1010100040E064E28FEF91E00E94C00240E066E2AF
:101020008FEF91E00E94C00246E268E48FEF91E00A
:101030000E94C00240E864E58FEF91E00E94C00288
:1010400049EA66E58FEF91E00E94C00243E068E55F
:101050008FEF91E00E94C00248EE6AE58FEF91E0C9
:101060000E94C00240E46AE28FEF91E00E94C00259
:101070004DE362E28FEF91E00E94C00268E28FEFE1
:1010800091E00E94A202982F9370933039F0482F7C
:10109000436068E28FEF91E00E94C0028AE191E034
:1010A0000E9460020E94CA010E94CA013AE0E32E37
:1010B00032E0F32E8FEF91E00E94FF038823B9F115
:1010C0008FEF91E00E946D01882389F181E491E026
:1010D0000E94600202E012E0F80141918F0150E0AD
:1010E00060E070E019A2CE0181964A015B0124E024
:1010F000B694A794979487942A95D1F7F0E18F9EA0
:101100004019112401974A3014F4405D01C0495C34
:10111000FC014083B501A40189288A288B2829F77E
:101120000E946002E016F106B9F60E94CA010E9410
:101130003302C0CFF8940C94A308EE0FFF1F059064
:0A114000F491E02D0994F894FFCF1C
:10114A0000000000880138022302E7010702DC01DF
:10115A00000000006404FF036D01417070726F7833
:10116A00696D61746520796F75722063617264209C
:10117A00746F20746865207265616465722E2E2E04
:0C118A00005B554944207461675D000063
:00000001FF
